{
  "_format": "hh-sol-artifact-1",
  "contractName": "CertificateRegistry",
  "sourceName": "contracts/CertificateRegistry.sol",
  "abi": [
    {
      "inputs": [
        {
          "internalType": "bytes32",
          "name": "",
          "type": "bytes32"
        }
      ],
      "name": "certificates",
      "outputs": [
        {
          "internalType": "string",
          "name": "certName",
          "type": "string"
        },
        {
          "internalType": "string",
          "name": "issuer",
          "type": "string"
        },
        {
          "internalType": "uint256",
          "name": "issuedAt",
          "type": "uint256"
        },
        {
          "internalType": "bool",
          "name": "isEcoFriendly",
          "type": "bool"
        },
        {
          "internalType": "bool",
          "name": "exists",
          "type": "bool"
        }
      ],
      "stateMutability": "view",
      "type": "function"
    },
    {
      "inputs": [
        {
          "internalType": "bytes32",
          "name": "certHash",
          "type": "bytes32"
        }
      ],
      "name": "getCertificateDetails",
      "outputs": [
        {
          "internalType": "string",
          "name": "certName",
          "type": "string"
        },
        {
          "internalType": "string",
          "name": "issuer",
          "type": "string"
        },
        {
          "internalType": "uint256",
          "name": "issuedAt",
          "type": "uint256"
        },
        {
          "internalType": "bool",
          "name": "isEcoFriendly",
          "type": "bool"
        }
      ],
      "stateMutability": "view",
      "type": "function"
    },
    {
      "inputs": [
        {
          "internalType": "bytes32",
          "name": "certHash",
          "type": "bytes32"
        }
      ],
      "name": "isEcoFriendlyCertificate",
      "outputs": [
        {
          "internalType": "bool",
          "name": "",
          "type": "bool"
        }
      ],
      "stateMutability": "view",
      "type": "function"
    },
    {
      "inputs": [
        {
          "internalType": "bytes32",
          "name": "certHash",
          "type": "bytes32"
        }
      ],
      "name": "isRegistered",
      "outputs": [
        {
          "internalType": "bool",
          "name": "",
          "type": "bool"
        }
      ],
      "stateMutability": "view",
      "type": "function"
    },
    {
      "inputs": [
        {
          "internalType": "bytes32",
          "name": "certHash",
          "type": "bytes32"
        },
        {
          "internalType": "string",
          "name": "certName",
          "type": "string"
        },
        {
          "internalType": "string",
          "name": "issuer",
          "type": "string"
        },
        {
          "internalType": "bool",
          "name": "isEcoFriendly",
          "type": "bool"
        }
      ],
      "name": "registerCertificate",
      "outputs": [],
      "stateMutability": "nonpayable",
      "type": "function"
    }
  ],
  "bytecode": "0x6080604052348015600f57600080fd5b50610e808061001f6000396000f3fe608060405234801561001057600080fd5b50600436106100575760003560e01c80631f1f804f1461005c57806327258b2214610078578063742f0688146100a8578063a26f6722146100dc578063ac15f0ac1461010c575b600080fd5b61007660048036038101906100719190610852565b61013f565b005b610092600480360381019061008d91906108f1565b61025f565b60405161009f919061092d565b60405180910390f35b6100c260048036038101906100bd91906108f1565b61028b565b6040516100d39594939291906109e0565b60405180910390f35b6100f660048036038101906100f191906108f1565b6103eb565b604051610103919061092d565b60405180910390f35b610126600480360381019061012191906108f1565b610479565b6040516101369493929190610a41565b60405180910390f35b60008085815260200190815260200160002060030160019054906101000a900460ff16156101a2576040517f08c379a000000000000000000000000000000000000000000000000000000000815260040161019990610ae0565b60405180910390fd5b6040518060a0016040528084815260200183815260200142815260200182151581526020016001151581525060008086815260200190815260200160002060008201518160000190816101f59190610d0c565b50602082015181600101908161020b9190610d0c565b506040820151816002015560608201518160030160006101000a81548160ff02191690831515021790555060808201518160030160016101000a81548160ff02191690831515021790555090505050505050565b600080600083815260200190815260200160002060030160019054906101000a900460ff169050919050565b60006020528060005260406000206000915090508060000180546102ae90610b2f565b80601f01602080910402602001604051908101604052809291908181526020018280546102da90610b2f565b80156103275780601f106102fc57610100808354040283529160200191610327565b820191906000526020600020905b81548152906001019060200180831161030a57829003601f168201915b50505050509080600101805461033c90610b2f565b80601f016020809104026020016040519081016040528092919081815260200182805461036890610b2f565b80156103b55780601f1061038a576101008083540402835291602001916103b5565b820191906000526020600020905b81548152906001019060200180831161039857829003601f168201915b5050505050908060020154908060030160009054906101000a900460ff16908060030160019054906101000a900460ff16905085565b600080600083815260200190815260200160002060030160019054906101000a900460ff1661044f576040517f08c379a000000000000000000000000000000000000000000000000000000000815260040161044690610e2a565b60405180910390fd5b60008083815260200190815260200160002060030160009054906101000a900460ff169050919050565b60608060008060008086815260200190815260200160002060030160019054906101000a900460ff166104e1576040517f08c379a00000000000000000000000000000000000000000000000000000000081526004016104d890610e2a565b60405180910390fd5b60008060008781526020019081526020016000206040518060a001604052908160008201805461051090610b2f565b80601f016020809104026020016040519081016040528092919081815260200182805461053c90610b2f565b80156105895780601f1061055e57610100808354040283529160200191610589565b820191906000526020600020905b81548152906001019060200180831161056c57829003601f168201915b505050505081526020016001820180546105a290610b2f565b80601f01602080910402602001604051908101604052809291908181526020018280546105ce90610b2f565b801561061b5780601f106105f05761010080835404028352916020019161061b565b820191906000526020600020905b8154815290600101906020018083116105fe57829003601f168201915b50505050508152602001600282015481526020016003820160009054906101000a900460ff161515151581526020016003820160019054906101000a900460ff161515151581525050905080600001518160200151826040015183606001519450945094509450509193509193565b6000604051905090565b600080fd5b600080fd5b6000819050919050565b6106b18161069e565b81146106bc57600080fd5b50565b6000813590506106ce816106a8565b92915050565b600080fd5b600080fd5b6000601f19601f8301169050919050565b7f4e487b7100000000000000000000000000000000000000000000000000000000600052604160045260246000fd5b610727826106de565b810181811067ffffffffffffffff82111715610746576107456106ef565b5b80604052505050565b600061075961068a565b9050610765828261071e565b919050565b600067ffffffffffffffff821115610785576107846106ef565b5b61078e826106de565b9050602081019050919050565b82818337600083830152505050565b60006107bd6107b88461076a565b61074f565b9050828152602081018484840111156107d9576107d86106d9565b5b6107e484828561079b565b509392505050565b600082601f830112610801576108006106d4565b5b81356108118482602086016107aa565b91505092915050565b60008115159050919050565b61082f8161081a565b811461083a57600080fd5b50565b60008135905061084c81610826565b92915050565b6000806000806080858703121561086c5761086b610694565b5b600061087a878288016106bf565b945050602085013567ffffffffffffffff81111561089b5761089a610699565b5b6108a7878288016107ec565b935050604085013567ffffffffffffffff8111156108c8576108c7610699565b5b6108d4878288016107ec565b92505060606108e58782880161083d565b91505092959194509250565b60006020828403121561090757610906610694565b5b6000610915848285016106bf565b91505092915050565b6109278161081a565b82525050565b6000602082019050610942600083018461091e565b92915050565b600081519050919050565b600082825260208201905092915050565b60005b83811015610982578082015181840152602081019050610967565b60008484015250505050565b600061099982610948565b6109a38185610953565b93506109b3818560208601610964565b6109bc816106de565b840191505092915050565b6000819050919050565b6109da816109c7565b82525050565b600060a08201905081810360008301526109fa818861098e565b90508181036020830152610a0e818761098e565b9050610a1d60408301866109d1565b610a2a606083018561091e565b610a37608083018461091e565b9695505050505050565b60006080820190508181036000830152610a5b818761098e565b90508181036020830152610a6f818661098e565b9050610a7e60408301856109d1565b610a8b606083018461091e565b95945050505050565b7f436572746966696361746520616c726561647920726567697374657265640000600082015250565b6000610aca601e83610953565b9150610ad582610a94565b602082019050919050565b60006020820190508181036000830152610af981610abd565b9050919050565b7f4e487b7100000000000000000000000000000000000000000000000000000000600052602260045260246000fd5b60006002820490506001821680610b4757607f821691505b602082108103610b5a57610b59610b00565b5b50919050565b60008190508160005260206000209050919050565b60006020601f8301049050919050565b600082821b905092915050565b600060088302610bc27fffffffffffffffffffffffffffffffffffffffffffffffffffffffffffffffff82610b85565b610bcc8683610b85565b95508019841693508086168417925050509392505050565b6000819050919050565b6000610c09610c04610bff846109c7565b610be4565b6109c7565b9050919050565b6000819050919050565b610c2383610bee565b610c37610c2f82610c10565b848454610b92565b825550505050565b600090565b610c4c610c3f565b610c57818484610c1a565b505050565b5b81811015610c7b57610c70600082610c44565b600181019050610c5d565b5050565b601f821115610cc057610c9181610b60565b610c9a84610b75565b81016020851015610ca9578190505b610cbd610cb585610b75565b830182610c5c565b50505b505050565b600082821c905092915050565b6000610ce360001984600802610cc5565b1980831691505092915050565b6000610cfc8383610cd2565b9150826002028217905092915050565b610d1582610948565b67ffffffffffffffff811115610d2e57610d2d6106ef565b5b610d388254610b2f565b610d43828285610c7f565b600060209050601f831160018114610d765760008415610d64578287015190505b610d6e8582610cf0565b865550610dd6565b601f198416610d8486610b60565b60005b82811015610dac57848901518255600182019150602085019450602081019050610d87565b86831015610dc95784890151610dc5601f891682610cd2565b8355505b6001600288020188555050505b505050505050565b7f4365727469666963617465206e6f7420666f756e640000000000000000000000600082015250565b6000610e14601583610953565b9150610e1f82610dde565b602082019050919050565b60006020820190508181036000830152610e4381610e07565b905091905056fea2646970667358221220d44ccea9b2a785dc0ed9398d2cf093b723ee6459abbb5ed37e63cb7288f64fcc64736f6c634300081c0033",
  "linkReferences": {},
  "deployedLinkReferences": {}
}