{
  "contractName": "CertVerifier",
  "abi": [
    {
      "anonymous": false,
      "inputs": [
        {
          "indexed": true,
          "internalType": "bytes32",
          "name": "hash",
          "type": "bytes32"
        }
      ],
      "name": "DocumentCertified",
      "type": "event"
    },
    {
      "inputs": [
        {
          "internalType": "bytes32",
          "name": "",
          "type": "bytes32"
        }
      ],
      "name": "certifiedDocs",
      "outputs": [
        {
          "internalType": "bool",
          "name": "",
          "type": "bool"
        }
      ],
      "stateMutability": "view",
      "type": "function",
      "constant": true
    },
    {
      "inputs": [
        {
          "internalType": "bytes32",
          "name": "docHash",
          "type": "bytes32"
        }
      ],
      "name": "certifyDocument",
      "outputs": [],
      "stateMutability": "nonpayable",
      "type": "function"
    },
    {
      "inputs": [
        {
          "internalType": "bytes32",
          "name": "docHash",
          "type": "bytes32"
        }
      ],
      "name": "verifyDocument",
      "outputs": [
        {
          "internalType": "bool",
          "name": "",
          "type": "bool"
        }
      ],
      "stateMutability": "view",
      "type": "function",
      "constant": true
    }
  ],
  "bytecode": "0x608060405234801561000f575f80fd5b506102238061001d5f395ff3fe608060405234801561000f575f80fd5b506004361061003f575f3560e01c80639e244fc914610043578063b86a94731461005f578063fe35089f1461008f575b5f80fd5b61005d6004803603810190610058919061018f565b6100bf565b005b6100796004803603810190610074919061018f565b610117565b60405161008691906101d4565b60405180910390f35b6100a960048036038101906100a4919061018f565b610133565b6040516100b691906101d4565b60405180910390f35b60015f808381526020019081526020015f205f6101000a81548160ff021916908315150217905550807f6a9f7e439228fbcd44f46bdf4ee04ab6831716c18980dd6a4b9a6a20102c044060405160405180910390a250565b5f602052805f5260405f205f915054906101000a900460ff1681565b5f805f8381526020019081526020015f205f9054906101000a900460ff169050919050565b5f80fd5b5f819050919050565b61016e8161015c565b8114610178575f80fd5b50565b5f8135905061018981610165565b92915050565b5f602082840312156101a4576101a3610158565b5b5f6101b18482850161017b565b91505092915050565b5f8115159050919050565b6101ce816101ba565b82525050565b5f6020820190506101e75f8301846101c5565b9291505056fea2646970667358221220a42676ee25c3f80fe8e513d877a50c3351cdc08e903c236d13d46729076ae26464736f6c63430008150033",
  "immutableReferences": {},
  "source": "// SPDX-License-Identifier: MIT\r\npragma solidity ^0.8.21;\r\n\r\ncontract CertVerifier {\r\n    mapping(bytes32 => bool) public certifiedDocs;\r\n\r\n    event DocumentCertified(bytes32 indexed hash);\r\n\r\n    function certifyDocument(bytes32 docHash) public {\r\n        certifiedDocs[docHash] = true;\r\n        emit DocumentCertified(docHash);\r\n    }\r\n\r\n    function verifyDocument(bytes32 docHash) public view returns (bool) {\r\n        return certifiedDocs[docHash];\r\n    }\r\n}\r\n",
  "sourcePath": "C:\\Users\\siva2\\desktop\\eco-cert-verifier\\contracts\\Test.sol",
  "compiler": {
    "name": "solc",
    "version": "0.8.21+commit.d9974bed.Emscripten.clang"
  },
  "schemaVersion": "3.4.16",
  "updatedAt": "2025-04-05T05:33:06.152Z",
  "networkType": "ethereum",
  "devdoc": {
    "kind": "dev",
    "methods": {},
    "version": 1
  },
  "userdoc": {
    "kind": "user",
    "methods": {},
    "version": 1
  }
}